:100000000C9463000C9456060C942F060C948B00F1
:100010000C948B000C948B000C948B000C947D063C
:100020000C948B000C948B000C948B000C948B0024
:100030000C948B000C948B000C948B000C948B0014
:100040000C94E5050C948B000C9425070C94FF068A
:100050000C948B000C948B000C948B000C948B00F4
:100060000C9457070C948B0002000000002400271A
:10007000002A0000000000250028002B00000000DE
:1000800000230026002900040404040404040402DC
:100090000202020202030303030303010204081025
:1000A00020408001020408102001020408102000F2
:1000B0000000080002010000030407000000000027
:1000C00000000000720811241FBECFEFD8E0DEBF91
:1000D000CDBF11E0A0E0B1E0ECEDF1E202C005908F
:1000E0000D92A03AB107D9F723E0A0EAB1E001C030
:1000F0001D92AA33B207E1F710E0C3E6D0E004C0D6
:100100002197FE010E94E610C236D107C9F70E946E
:10011000BC080C94EC100C9400002091840281E047
:10012000213208F044C0809160028111FCCF80919F
:10013000830292E09093600291E090935F029FEFC0
:1001400090935E0210925D0220935C02A3E6B2E0FF
:10015000ECE3F2E090E0291331C010923B02909161
:100160003B02880F892B80933B0280913A028130B9
:1001700049F510923A0280913B028093BB00809136
:10018000BC0083FDF8CF85EC8093BC0080916002B9
:100190008230E1F380915E028F3FB1F080915E0288
:1001A0008032A1F080915E02803391F084E0109261
:1001B0006202109284021092610208953D9131937F
:1001C0009F5FC9CF85EEE0CF80E0F1CF82E0EFCF37
:1001D00083E0EDCF91E090936102809383021092CF
:1001E000620210928402089590913902809138023F
:1001F0002FEF3FEF981748F4E92FF0E0E85EFD4F4E
:10020000208130E09F5F90933902C9010895909159
:100210003902809138022FEF3FEF981748F4E92F09
:10022000F0E0E85EFD4F208130E09F5F909339025F
:10023000C9010895833081F028F4813099F082302B
:10024000A9F008958730A9F08830C9F08430B1F45E
:10025000809180008F7D03C0809180008F77809394
:100260008000089584B58F7784BD089584B58F7D0F
:10027000FBCF8091B0008F778093B000089580917C
:10028000B0008F7DF9CFCF93DF93282F30E0F901B5
:10029000E155FF4F8491F901E556FF4FD491F901E3
:1002A000E957FF4FC491CC23A1F081110E941A019C
:1002B000EC2FF0E0EE0FFF1FE358FF4FA591B49134
:1002C000EC91ED2381E090E009F480E0DF91CF91A3
:1002D000089580E090E0FACF1F93CF93DF93282F0B
:1002E00030E0F901E155FF4F8491F901E556FF4FE8
:1002F000D491F901E957FF4FC491CC23A9F0162FEF
:1003000081110E941A01EC2FF0E0EE0FFF1FED5853
:10031000FF4FA591B4918FB7F894EC91111108C0DB
:10032000D095DE23DC938FBFDF91CF911F9108958D
:10033000DE2BF8CFCF93DF9390E0FC01E556FF4F23
:10034000249189579F4FFC0184918823D1F090E03C
:10035000880F991FFC01E759FF4FA591B491FC014B
:10036000ED58FF4FC591D491623071F49FB7F89466
:100370003C91822F809583238C93E8812E2B2883B8
:100380009FBFDF91CF9108958FB7F894EC912E2BFA
:100390002C938FBFF6CF3FB7F894809114029091C1
:1003A0001502A0911602B091170226B5A89B05C0B0
:1003B0002F3F19F00196A11DB11D3FBFBA2FA92FE4
:1003C000982F8827BC01CD01620F711D811D911DE1
:1003D00042E0660F771F881F991F4A95D1F708954D
:1003E0008F929F92AF92BF92CF92DF92EF92FF9245
:1003F0004B015C010E94CB016B017C010E94CB018F
:100400006C197D098E099F09683E7340810591052D
:10041000A8F321E0821A9108A108B10888EEC80E5D
:1004200083E0D81EE11CF11C81149104A104B104E5
:1004300029F7FF90EF90DF90CF90BF90AF909F9003
:100440008F9008950895DC01ED91FC910190F08169
:10045000E02D0994AF92BF92CF92DF92EF92FF927C
:100460000F931F93CF93DF936C017B018B01040FDC
:10047000151FEB015E01AE18BF08C017D10759F078
:100480006991D601ED91FC910190F081E02DC601BA
:100490000995892B79F7C501DF91CF911F910F91B4
:1004A000FF90EF90DF90CF90BF90AF900895809134
:1004B000380290913902891B990B0895FC01538DE4
:1004C000448D252F30E0842F90E0821B930B54172E
:1004D00010F0CF96089501970895FC01918D828DBB
:1004E000981761F0A28DAE0FBF2FB11D5D968C9154
:1004F000928D9F5F9F73928F90E008958FEF9FEF93
:100500000895FC01918D828D981731F0828DE80F4E
:10051000F11D858D90E008958FEF9FEF0895FC0108
:10052000918D228D892F90E0805C9F4F821B9109D5
:100530008F739927089585E892E00E948F0221E049
:10054000892B09F420E0822F089580E090E0892B28
:1005500029F00E949B0281110C9400000895FC0177
:10056000A48DA80FB92FB11DA35ABF4F2C91848D14
:1005700090E001968F739927848FA689B7892C9371
:10058000A089B1898C9180648C93938D848D98130C
:1005900006C00288F389E02D80818F7D80830895D5
:1005A000EF92FF920F931F93CF93DF93EC0181E0C3
:1005B000888F9B8D8C8D981316C0E889F98980816E
:1005C00085FF11C0EE89FF896083E889F989808100
:1005D0008064808381E090E0DF91CF911F910F9143
:1005E000FF90EF900895F62E0B8D10E00F5F1F4FD8
:1005F0000F731127E02E8C8D8E110CC00FB607FCE7
:10060000FACFE889F989808185FFF5CFCE010E9474
:10061000AF02F1CFEB8DEC0FFD2FF11DE35AFF4F31
:10062000F0820B8FEA89FB8980818062D2CFCF93E1
:10063000DF93EC01888D8823B9F0AA89BB89E8890A
:10064000F9898C9185FD03C0808186FD0DC00FB6B0
:1006500007FCF7CF8C9185FFF2CF808185FFEDCF2E
:10066000CE010E94AF02E9CFDF91CF91089585EDD1
:100670008093BC008091BC0084FDFCCF109260028E
:1006800008952091C401260F3327331F21323105ED
:10069000ECF420916002FC0190E080E0243069F0ED
:1006A00082E00895A091C4012191AC014C555E4FA8
:1006B000A40FB52FB11D2C930196861798F3809146
:1006C000C401680F6093C40180E0089581E008953B
:1006D0001092600281E080935F0210923A0261E022
:1006E00082E10E946C0161E083E10E946C01E9EB10
:1006F000F0E080818E7F808380818D7F808388E49D
:100700008093B80085E48093BC000895089508950F
:10071000E091390280913802E81730F4F0E0E85EA9
:10072000FD4F808190E008958FEF9FEF0895CF9265
:10073000DF92EF92FF920F931F93CF93DF937C0191
:10074000CB018A0120916102222389F0EB016B0128
:10075000C40ED51ECC15DD0569F06991D701ED9168
:10076000FC910190F081E02DC7010995F3CF642F32
:100770000E944103C801DF91CF911F910F91FF901B
:10078000EF90DF90CF900895CF93DF931F92CDB776
:10079000DEB76983209161022223F9F0209184025F
:1007A000203258F021E030E0FC013383228390E0D6
:1007B00080E00F90DF91CF91089580916202E82F41
:1007C000F0E0ED59FD4F998190838F5F8093620235
:1007D0008093840281E090E0ECCF61E0CE0101964D
:1007E0000E944103F7CF682F82E293E00C94C40388
:1007F0000F931F93CF938C01C62FFC0184810E941D
:10080000EA00F80183858C2B90E00E94F303CF91DE
:100810001F910F910C948D0090E080E008959091CD
:1008200060029111FCCF282F91E090936002909389
:100830005F023FEF30935E0210925D02380F3093FB
:100840005C0290933B0290913B02906D90933B022F
:1008500090913A02913019F510923A0290913B0230
:100860009093BB009091BC0093FDF8CF95EC9093D2
:10087000BC00909160029130E1F390915D02981775
:1008800010F420915D02ACE3B2E0E8E1F2E080E038
:10089000821307C01092390280933802089595EEB2
:1008A000E6CF9D9191938F5FF3CFCF93C82F88E6CA
:1008B0000E94EA008FE090E0C11102C08EE090E05B
:1008C0000E94F3030E948D0081E090E00E940F04DB
:1008D0000E940701CF910895CF93DF93C82F81E045
:1008E0000E945504D82FC130C1F4D170C82FCE7FDB
:1008F00088E60E94EA008FE090E00E94F3036C2FEC
:1009000082E293E00E94C4030E948D0081E0D11135
:1009100001C080E0DF91CF910895D270C82FCD7FC4
:10092000E7CF0F931F93CF938C01C62F0E94F8033C
:100930006C2F6460C8010E94F8036C2F6B7FC801A4
:100940000E94F80383EC90E00197F1F7CF911F919B
:100950000F9108950F931F93CF93DF938C01D62FA0
:10096000C42F607F642B0E94910480E1D89FB00166
:1009700011246C2BC801DF91CF911F910F910C9422
:100980009104CF93DF93CDB7DEB728970FB6F894D5
:10099000DEBF0FBECDBF98E0E5E0F1E0DE011196CD
:1009A00001900D929A95E1F790913703981708F40A
:1009B0008FEF90E0880F991F21E030E02C0F3D1F52
:1009C000820F931FFC016081606840E08EE293E03B
:1009D00028960FB6F894DEBF0FBECDBFDF91CF9142
:1009E0000C94AA0441E00E94AA0481E090E00895DA
:1009F000FB0101900020E9F73197AF01461B570B2F
:100A0000DC01ED91FC910280F381E02D09948F923D
:100A10009F92AF92BF92EF92FF920F931F93CF934B
:100A2000DF93CDB7DEB7A1970FB6F894DEBF0FBE48
:100A3000CDBF7C01FA01CB0119A2223008F42AE0D3
:100A40008E010F5D1F4F822E912CB12CA12CBF0166
:100A5000A50194010E94BB10F901CA016A300CF58E
:100A6000605DD8016E938D01232B242B252B79F704
:100A700090E080E0109721F0BD01C7010E94F804CA
:100A8000A1960FB6F894DEBF0FBECDBFDF91CF9118
:100A90001F910F91FF90EF90BF90AF909F908F901C
:100AA0000895695CDECFAC01990F660B770B2AE0E5
:100AB00085E892E00C940705242F462F50E070E063
:100AC00060E00C9407050C94F804CF92DF92EF924B
:100AD000FF920F931F932FB7F8948091100290917B
:100AE0001102A0911202B09113022FBF4091A001F8
:100AF0005091A1016091A2017091A3018C019D010F
:100B0000041B150B260B370BB901A801483C5105F6
:100B10006105710508F452C08093A0019093A10172
:100B2000A093A201B093A30183E00E94430181300E
:100B3000910511F08FEF9FEF409101025091020259
:100B40006091030270910402092E000CAA0BBB0BEA
:100B5000840F951FA61FB71F809301029093020276
:100B6000A0930302B0930402C0900102D09002024D
:100B7000E0900302F09004022AE0B701A601F7FE1C
:100B80000DC06DE285E892E00E94230244275527BC
:100B9000BA014C195D096E097F092AE085E892E0E7
:100BA0000E9407056DE371E085E892E01F910F91C7
:100BB000FF90EF90DF90CF900C94F8041F910F916D
:100BC000FF90EF90DF90CF9008951F920F920FB695
:100BD0000F9211242F933F938F939F93AF93BF93C3
:100BE0008091100290911102A0911202B091130213
:100BF00030910F0223E0230F2D3758F50196A11DE8
:100C0000B11D20930F028093100290931102A093C4
:100C10001202B09313028091140290911502A091D8
:100C20001602B09117020196A11DB11D8093140206
:100C300090931502A0931602B0931702BF91AF9143
:100C40009F918F913F912F910F900FBE0F901F900A
:100C5000189526E8230F0296A11DB11DD2CF1F9231
:100C60000F920FB60F9211242F933F934F935F93E0
:100C70006F937F938F939F93AF93BF93EF93FF9364
:100C8000E0910301F09104010995FF91EF91BF916B
:100C9000AF919F918F917F916F915F914F913F9114
:100CA0002F910F900FBE0F901F9018951F920F92CB
:100CB0000FB60F9211242F933F934F935F936F932F
:100CC0007F938F939F93AF93BF93EF93FF93E091A5
:100CD0000101F09102010995FF91EF91BF91AF9150
:100CE0009F918F917F916F915F914F913F912F9144
:100CF0000F900FBE0F901F9018951F920F920FB676
:100D00000F9211242F933F934F935F936F937F9391
:100D10008F939F93AF93BF93EF93FF9380910B02B9
:100D200090910C02A0910D02B0910E02892B8A2B9A
:100D30008B2BD1F190910A02E0910802F091090207
:100D400080818927808380910B0290910C02A09171
:100D50000D02B0910E02181619061A061B069CF415
:100D600080910B0290910C02A0910D02B0910E02A5
:100D70000197A109B10980930B0290930C02A093F3
:100D80000D02B0930E02FF91EF91BF91AF919F9131
:100D90008F917F916F915F914F913F912F910F9024
:100DA0000FBE0F901F90189580910001E8E6F0E0CB
:100DB000E4919FEF90930001E13051F030F0E23088
:100DC00069F060E00E946C01DECF10926E00F9CFF6
:100DD00090916F009D7F90936F00F3CF9091700082
:100DE0009D7F9093700091E09093B0009091B1003E
:100DF000987F94609093B1001092B300E2CF1F925D
:100E00000F920FB60F9211242F933F934F935F933E
:100E10006F937F938F939F93AF93BF93EF93FF93C2
:100E200085E892E00E94AF02FF91EF91BF91AF91F0
:100E30009F918F917F916F915F914F913F912F91F2
:100E40000F900FBE0F901F9018951F920F920FB624
:100E50000F9211242F938F939F93EF93FF93E09121
:100E60009502F09196028081E0919B02F0919C02A4
:100E700082FD1BC0908180919E028F5F8F732091B5
:100E80009F02821741F0E0919E02F0E0EB57FD4F88
:100E9000958F80939E02FF91EF919F918F912F915B
:100EA0000F900FBE0F901F9018958081F4CF1F9266
:100EB0000F920FB60F9211242F933F934F935F938E
:100EC0006F937F938F939F93AF93BF93EF93FF9312
:100ED0008091B900887F803609F44AC0F0F58832E5
:100EE00009F4A5C018F5803109F499C0B8F4882335
:100EF00009F4F5C0883009F492C0FF91EF91BF91D9
:100F0000AF919F918F917F916F915F914F913F91A1
:100F10002F910F900FBE0F901F901895883109F4F4
:100F200086C0803251F780935E0214C0803409F489
:100F30009BC040F48033B9F38833F9F680935E02A6
:100F400085ECAEC0803509F483C0883509F494C0BF
:100F5000883499F60E943703D0CF883909F48AC0C3
:100F600038F5883729F050F4883611F0803729F6A3
:100F700083E0809360021092E60155C0883809F43E
:100F800079C0803919F0803809F0B7CF8091E60137
:100F9000803208F06FC0E091E60181E08E0F80930F
:100FA000E6018091BB00F0E0EA53FE4F80833BC036
:100FB000803B39F0D0F4803A09F477C0883A09F0E0
:100FC0009CCF84E0809360021092C5011092C4010E
:100FD000F0E0E0E009958091C40181110FC081E04B
:100FE0008093C4011092A40109C0803C09F4A8CFE9
:100FF000883C09F4A5CF883B09F07FCFE091C5017B
:1010000081E08E0F8093C501F0E0EC55FE4F8081AA
:101010008093BB009091C5018091C40129C080914B
:101020003B028093BB0085EC8093BC0066CF90911F
:101030005D0280915C02981758F5E0915D0281E0B5
:101040008E0F80935D02F0E0E45CFD4F8081E9CF7C
:10105000E0915D0281E08E0F80935D028091BB0084
:10106000F0E0E45CFD4F808390915D0280915C0232
:101070009817C8F285E8D8CFE0915D0281E08E0F25
:1010800080935D028091BB00F0E0E45CFD4F8083C3
:1010900080915F0281115ECF81E080933A0284EA01
:1010A0008093BC001092600228CF85EC8093BC0036
:1010B000109260028091E601803230F4E091E60106
:1010C000F0E0EA53FE4F10826091E60170E086EC9A
:1010D00091E0F0E0E0E009951092E6010ECF109269
:1010E0005E0238CFE5E8F2E01382128288EE93E0E8
:1010F000A0E0B0E084839583A683B78321E131E04B
:101100003183208325EC30E03587248724EC30E0E0
:101110003787268720EC30E0318B208B21EC30E0C4
:10112000338B228B22EC30E0358B248B26EC30E0A5
:10113000378B268B118E128E138E148EE2E2F3E023
:101140001382128284839583A683B78383E291E01E
:1011500091838083EEE2F3E01382128285E391E0D3
:101160009183808387E2848380E1808782E0818726
:10117000128688E083870895CF93DF93CDB7DEB7DB
:101180002A970FB6F894DEBF0FBECDBF789484B512
:10119000826084BD84B5816084BD85B5826085BD73
:1011A00085B5816085BD80916E00816080936E0001
:1011B00010928100809181008260809381008091F3
:1011C00081008160809381008091800081608093A4
:1011D00080008091B10084608093B1008091B00064
:1011E00081608093B00080917A00846080937A005F
:1011F00080917A00826080937A0080917A00816089
:1012000080937A0080917A00806880937A001092AF
:10121000C1001092390210923802109262021092AC
:1012200084020E946803E0919502F091960282E0A8
:101230008083E0919102F09192021082E0919302FA
:10124000F09194028FEC808310929D02E0919902BC
:10125000F0919A0286E08083E0919702F0919802E3
:10126000808180618083E0919702F0919802808173
:1012700088608083E0919702F09198028081806875
:101280008083E0919702F091980280818F7D808326
:101290000E9468031092330380913703823018F064
:1012A00098E09093330390913803992339F081307B
:1012B00029F48091330384608093330362E370E008
:1012C00080E090E00E94F001609139038EE293E0AB
:1012D0000E94F80368EE73E080E090E00E94F00165
:1012E00060E38EE293E00E9491048BE496E4019720
:1012F000F1F760E38EE293E00E9491040BE416E4C0
:10130000C8010197F1F760E38EE293E00E94910437
:1013100083E592E00197F1F760E28EE293E00E94AC
:10132000910460913303606240E08EE293E00E949A
:10133000AA0484E08093340340E06CE08EE293E002
:101340000E94AA0440E061E08EE293E00E94AA04B9
:101350008BE39FE10197F1F782E08093350340E052
:1013600066E08EE293E00E94AA0440E062E08EE232
:1013700093E00E94AA04EBE3FFE13197F1F788E0E4
:101380008093390360E08EE293E00E94F80385E6E3
:1013900095E09093020180930101809169008C7F18
:1013A000826080936900E89A62E082E00E949A017C
:1013B00062E083E00E949A0162E084E00E949A0168
:1013C00045E9242E40E0342E50E4452E56E0552EBB
:1013D000612C712C80E00E94C10460E471E08EE217
:1013E00093E00E9463058091070262E471E081113D
:1013F00002C065E671E08EE293E00E94630588E634
:101400000E94EA0086E090E00E94F3030E948D00B3
:1014100081E090E00E940F040E940701982F9295AE
:101420009F708F70682FFAE09F9F600D11244AE033
:1014300050E08EE293E00E945C0560E28EE293E071
:101440000E94230288E60E94EA0085E090E00E9464
:10145000F3030E948D0081E090E00E940F040E943F
:101460000701982F991F9927991F90930702982F8A
:10147000929597708F70682F3AE0A32E9A9D600D19
:1014800011244AE050E08EE293E00E945C0560E2A5
:101490008EE293E00E94230288E60E94EA0084E044
:1014A00090E00E94F3030E948D0081E090E00E9492
:1014B0000F040E940701982F92959F708F70682FDC
:1014C0009A9D600D11244AE050E08EE293E00E9464
:1014D0005C0560E28EE293E00E94230281E00E94BC
:1014E000C10488E60E94EA0082E090E00E94F303D3
:1014F0000E948D0081E090E00E940F040E9407018D
:1015000041E09C012074332786FF40E040930602AF
:10151000482F42954F70682F6F70232B09F426C314
:1015200085FB882780F98093050241702AE0B22E5E
:101530004B9D600D11244AE050E08EE293E00E9442
:101540005C056AE38EE293E00E94230288E60E9433
:10155000EA0081E090E00E94F3030E948D0081E0A8
:1015600090E00E940F040E940701982F92959F70AF
:101570008F70682F8AE0D82E9D9D600D11244AE05F
:1015800050E08EE293E00E945C056AE38EE293E015
:101590000E94230288E60E94EA0090E080E00E9418
:1015A000F3030E948D0081E090E00E940F040E94EE
:1015B0000701982F92959F708F70682F9D9D600DE9
:1015C00011244AE050E08EE293E00E945C0564E45E
:1015D00071E08EE293E00E94630588E60E94EA00D3
:1015E00081E190E00E94F3030E948D0082E090E090
:1015F0000E940F049091380280913902C12C1CE3A3
:10160000D12E1CE1E12E16ECF12E981731F10E943B
:10161000070189830E940701E980EA8619866985A6
:101620007A85682B06E0759567950A95E1F7072E90
:10163000000C880B990B0E94940F20E030E040E8EA
:101640005EE30E9449106B017C01AC019B010E948A
:10165000B61068E471E081111BC046015701E8949F
:10166000B7F82FEF3FEF4FE75FE7C501B4010E94E6
:10167000B610811182C22FEF3FEF4FE75FE7C50140
:10168000B4010E945E0F18160CF077C26CE471E092
:101690008EE293E00E94F80464E571E08EE293E04C
:1016A0000E94630584E00E944301892BD1F41092CB
:1016B000010210920202109203021092040266E5E7
:1016C00071E085E892E00E94F8046DE371E085E83E
:1016D00092E00E94F8046CE271E080E090E00E94E9
:1016E000F00181E00E94550467E671E087FF02C0C7
:1016F0006BE671E085E892E00E94630581E00E945C
:101700006C04882331F06FE671E085E892E00E9476
:10171000630582E00E946C04882331F064E771E085
:1017200085E892E00E9463056AE085E892E00E9405
:10173000230269E771E085E892E00E94630588E68C
:101740000E94EA0087E090E00E94F3030E948D006F
:1017500084E090E00E940F040E940701282F229548
:101760002770982F9F70FAE0FF2E2F9D900D112467
:101770009093FD01881F8827881F9091FC01892B79
:101780008093FC010E940701382F32953770282F73
:101790002F703F9D200D11242093FE01A6E095950A
:1017A0008795AA95E1F782709091FC01892B80932F
:1017B000FC010E9407019C01B5E035952795BA957B
:1017C000E1F7322F34702091FC01232B2093FC0190
:1017D00041E09C012074332786FF40E04093FA01EA
:1017E000582F52955F70482F4F70232B09F400C279
:1017F00085FB882780F98093F90151700AE0509F9A
:10180000400D11244093FF010E9407019C01E4E078
:1018100035952795EA95E1F7322F38702091FC0134
:10182000232B2093FC0141E09C012074332786FF89
:1018300040E04093FB01482F4F70232B09F4DEC199
:10184000409300024AE050E06091000285E892E097
:101850000E945C058091FB0163E871E0811102C088
:1018600068E871E085E892E00E94630560E285E83F
:1018700092E00E9423024AE050E06091FF0185E877
:1018800092E00E945C0560E285E892E00E942302FB
:101890004AE050E06091FE0185E892E00E945C051C
:1018A00060E285E892E00E9423024AE050E0609105
:1018B000FD0185E892E00E945C0560E285E892E027
:1018C0000E9423028091FA01882321F080E29DE6A4
:1018D0000E94530580E00E94550480FF06C06EE818
:1018E00071E085E892E00E9463056AE085E892E095
:1018F0000E94230266E971E085E892E00E94630598
:1019000088E60E94EA008BE090E00E94F3030E94C8
:101910008D0083E090E00E940F040E940701382FA1
:1019200032953770282F2F704AE0349F200D1124F4
:101930002093FE0163E0959587956A95E1F78071A4
:101940009091FC01892B8093FC010E9407019C016E
:101950003595279535952795322F30722091FC01CA
:10196000232B2093FC0141E09C012074332786FF48
:1019700040E04093FA01582F52955F70482F4F7006
:10198000232B09F442C185FB882780F98093F90154
:1019900051708AE0589F400D11244093FF010E942E
:1019A00007019C0135952795322F30742091FC0159
:1019B000232B2093FC0141E09C012074332786FFF8
:1019C00040E04093FB01482F4F70232B09F423C1C3
:1019D000409300024AE050E06091000285E892E006
:1019E0000E945C058091FB0163E871E0811102C0F7
:1019F00068E871E085E892E00E94630560E285E8AE
:101A000092E00E9423024AE050E06091FF0185E8E5
:101A100092E00E945C0560E285E892E00E94230269
:101A20004AE050E06091FE0185E892E00E945C058A
:101A300060E285E892E00E9423028091FA01882307
:101A400049F08091F901882309F4ECC08DE690E714
:101A50000E94530580E00E94550481FF06C06EE895
:101A600071E085E892E00E94630580E29AE30E94BB
:101A7000530542E050E06091FC0185E892E00E944D
:101A80005C056AE085E892E00E9423026AE085E84E
:101A900092E00E9423022091F1013091F2014091E5
:101AA000F3015091F4016091F5017091F60180917C
:101AB000F7019091F801215E3C4F4F4F5F4F6F4F00
:101AC0007F4F8F4F9F4FEFB7F894A0901002B090C8
:101AD0001102C0901202D0901302A982BA82CB8266
:101AE000DC82EFBFC980DA80EB80FC8056016701A1
:101AF000E12CF12C8701A982BA82CB82DC82ED82B3
:101B0000FE820F831887E12CF12C00E010E00E9488
:101B1000DD100CF049C1809100018E3009F085C0C4
:101B2000E8E6F0E0149117FD24C161E08EE00E9428
:101B30009A01112309F4EBC0123009F0FCC0809126
:101B4000B100887F83608093B1008CE78093B300FD
:101B500040920B0250920C0260920D0270920E02A3
:101B60008091700082608093700003C143709AE09E
:101B7000C92E4C9D600D1124DECC2FEF3FEF4FE7B7
:101B80005FE4C701B6010E94441018161CF460E51A
:101B900071E07ECD2FEF3FEF4FE75FECC701B6015D
:101BA0000E945E0F87FDF3CF20E030E0A901C7015E
:101BB000B6010E945E0F87FF09C06DE28EE293E0DE
:101BC0000E942302F7FAF094F7F8F09420E030E056
:101BD00040E05FE3C701B6010E94F20E0E94630F6E
:101BE000AB01BC012AE08EE293E00E94070554CDD0
:101BF00053701AE0519F400D112404CE82958370DA
:101C00002AE0829F400D11241BCE53709AE0599F09
:101C1000400D1124C2CE82958370EAE08E9F400D64
:101C20001124D6CE8DE691E613CF8F3F09F0A1C0E7
:101C30008EE080930001E8E6F0E014911F3F09F484
:101C400098C0113021F150F0123009F43EC017FD58
:101C500090C061E08EE00E949A016ECF14BC15BC6A
:101C600084B5826084BD85B5816085BDF1018491B4
:101C7000E82FF0E0EE0FFF1FED58FF4F8591949194
:101C8000E9EAF0E084918093E80110E04ECF1092F1
:101C90008000109281008091810088608093810093
:101CA00080918100816080938100F1018491E82F0F
:101CB000F0E0EE0FFF1FED58FF4F85919491E9EA98
:101CC000F0E084918093E70130CF1092B000109241
:101CD000B1008091B00082608093B0008091B1002B
:101CE00081608093B100F1018491E82FF0E0EE0F64
:101CF000FF1FED58FF4F85919491909309028093B7
:101D00000802E9EAF0E0849180930A020ECF85B5DB
:101D1000887F836085BD8DE387BD4092ED01509241
:101D2000EE016092EF017092F00180916E0082608E
:101D300080936E001EC0113009F04BC0809181006D
:101D4000887F8160809381009FE9A92E9FE0B92E52
:101D5000B0928900A09288004092E9015092EA0175
:101D60006092EB017092EC0180916F008260809331
:101D70006F008FB7F894009110021091110220911A
:101D80001202309113028FBF0093F1011093F20100
:101D90002093F3013093F4011092F5011092F601B3
:101DA0001092F7011092F80168EE73E080E090E085
:101DB0000E94F00180E0C82E80E0D82ECD2809F4E2
:101DC00009CB0E949B02882309F404CB0E940000E7
:101DD00001CB123021F01111CCCF8FE99DCF8FE9CB
:101DE000B5CE5058BB27AA270E94090F0C940A10A1
:101DF0000E94FC0F38F00E94031020F039F49F3F3E
:101E000019F426F40C94F90F0EF4E095E7FB0C940A
:101E1000F30FE92F0E941B1058F3BA1762077307DC
:101E20008407950720F079F4A6F50C943D100EF484
:101E3000E0950B2EBA2FA02D0B01B90190010C01DA
:101E4000CA01A0011124FF27591B99F0593F50F4F2
:101E5000503E68F11A16F040A22F232F342F44274A
:101E6000585FF3CF469537952795A795F040539542
:101E7000C9F77EF41F16BA0B620B730B840BBAF012
:101E80009150A1F0FF0FBB1F661F771F881FC2F77D
:101E90000EC0BA0F621F731F841F48F48795779591
:101EA0006795B795F7959E3F08F0B0CF9395880F4B
:101EB00008F09927EE0F9795879508950E94CF0F08
:101EC00008F481E008950E94231088F09F5798F04D
:101ED000B92F9927B751B0F0E1F0660F771F881F2F
:101EE000991F1AF0BA95C9F714C0B13091F00E9449
:101EF0003D10B1E008950C943D10672F782F88278E
:101F0000B85F39F0B93FCCF3869577956795B3956F
:101F1000D9F73EF490958095709561957F4F8F4FDE
:101F20009F4F0895E89409C097FB3EF490958095E3
:101F3000709561957F4F8F4F9F4F9923A9F0F92F8F
:101F400096E9BB279395F695879577956795B7950D
:101F5000F111F8CFFAF4BB0F11F460FF1BC06F5FF3
:101F60007F4F8F4F9F4F16C0882311F096E911C005
:101F7000772321F09EE8872F762F05C0662371F026
:101F800096E8862F70E060E02AF09A95660F771F3A
:101F9000881FDAF7880F9695879597F90895990F16
:101FA0000008550FAA0BE0E8FEEF16161706E80723
:101FB000F907C0F012161306E407F50798F0621B44
:101FC000730B840B950B39F40A2661F0232B242B19
:101FD000252B21F408950A2609F4A140A6958FEF38
:101FE000811D811D089597F99F6780E870E060E08A
:101FF00008959FEF80EC089500240A9416161706A2
:1020000018060906089500240A94121613061406E9
:1020100005060895092E0394000C11F4882352F04C
:10202000BB0F40F4BF2B11F460FF04C06F5F7F4F04
:102030008F4F9F4F089557FD9058440F551F59F0EB
:102040005F3F71F04795880F97FB991F61F09F3FA5
:1020500079F087950895121613061406551FF2CFCE
:102060004695F1DF08C0161617061806991FF1CF1E
:1020700086957105610508940895E894BB27662745
:102080007727CB0197F908950E94CF0F08F48FEFBF
:1020900008950E945C100C940A100E94FC0F38F006
:1020A0000E94031020F0952311F00C94F30F0C9470
:1020B000F90F11240C943E100E941B1070F3959F91
:1020C000C1F3950F50E0551F629FF001729FBB272F
:1020D000F00DB11D639FAA27F00DB11DAA1F649FCB
:1020E0006627B00DA11D661F829F2227B00DA11D7E
:1020F000621F739FB00DA11D621F839FA00D611D04
:10210000221F749F3327A00D611D231F849F600D24
:10211000211D822F762F6A2F11249F5750409AF04D
:10212000F1F088234AF0EE0FFF1FBB1F661F771FD9
:10213000881F91505040A9F79E3F510580F00C94A4
:10214000F30F0C943E105F3FE4F3983ED4F3869572
:1021500077956795B795F795E7959F5FC1F7FE2B44
:10216000880F911D9695879597F908950E94CF0F36
:10217000880B990B0895A1E21A2EAA1BBB1BFD0127
:102180000DC0AA1FBB1FEE1FFF1FA217B307E40756
:10219000F50720F0A21BB30BE40BF50B661F771FAE
:1021A000881F991F1A9469F760957095809590958E
:1021B0009B01AC01BD01CF0108952A153B054C05DB
:1021C0005D056E057F05800791070895EE0FFF1FDF
:0C21D0000590F491E02D0994F894FFCFE5
:1021DC00FF22022202000040001400540000000004
:1021EC0000D0022A025E0217038F026D02810200E8
:1021FC00000000C40397030C0487035702F4008803
:10220C000300000000F2042A020C0486030D0A00ED
:10221C003200310020543D006E616E00696E660024
:10222C006F7666004300636F756E7420726573651C
:10223C007420746F203000204F2B00204F2D002075
:10224C00413121002041322100416C61726D2031FD
:10225C003A200020446F5700204461746500656E7D
:10226C0061626C656400416C61726D20323A2000D1
:00000001FF
