:100000000C9463000C949C080C9475080C948B0061
:100010000C948B000C948B000C948B000C94C308F4
:100020000C948B000C948B000C948B000C948B0024
:100030000C948B000C948B000C948B000C948B0014
:100040000C942B080C948B000C946B090C944509B0
:100050000C948B000C948B000C948B000C948B00F4
:100060000C949D090C948B000000000024002700D4
:100070002A000000000023002600290000000008DC
:10008000000201000003040700000000000000005F
:10009000010204081020408001020408102001021F
:1000A0000408102000000000250028002B00040494
:1000B0000404040404040202020202020303030310
:1000C00003030200B80A11241FBECFEFD8E0DEBF41
:1000D000CDBF11E0A0E0B1E0E0E0F8E202C00590A1
:1000E0000D92A23CB107D9F723E0A2ECB1E001C028
:1000F0001D92A736B207E1F710E0C3E6D0E004C0D6
:100100002197FE010E94E913C236D107C9F70E9468
:10011000020B0C94FE130C94000091E09093A0024B
:1001200080939F0210929E0210929D02089520914A
:100130009D0281E0213208F044C080917A02811151
:10014000FCCF80919F0292E090937A0291E090938D
:1001500079029FEF909378021092770220937602B3
:10016000A4E3B2E0E4E5F2E090E0291331C010929C
:10017000750290917502880F892B8093750280918A
:100180007402813049F51092740280917502809357
:10019000BB008091BC0083FDF8CF85EC8093BC0050
:1001A00080917A028230E1F3809178028F3FB1F042
:1001B000809178028032A1F080917802803391F0B2
:1001C00084E010929E0210929D021092A002089567
:1001D0003D9131939F5FC9CF85EEE0CF80E0F1CFB5
:1001E00082E0EFCF83E0EDCF833081F028F48130DF
:1001F00099F08230A9F008958730A9F08830C9F0CD
:100200008430B1F4809180008F7D03C080918000A4
:100210008F7780938000089584B58F7784BD08958B
:1002200084B58F7DFBCF8091B0008F778093B00035
:1002300008958091B0008F7DF9CFCF93DF93282F61
:1002400030E0F901E458FF4F8491F901E057FF4F86
:10025000D491F901E255FF4FC491CC23A1F0811153
:100260000E94F400EC2FF0E0EE0FFF1FEE58FF4F5E
:10027000A591B491EC91ED2381E090E009F480E048
:10028000DF91CF91089580E090E0FACF1F93CF9354
:10029000DF93282F30E0F901E458FF4F8491F901F2
:1002A000E057FF4FD491F901E255FF4FC491CC23A1
:1002B000A9F0162F81110E94F400EC2FF0E0EE0F50
:1002C000FF1FEC55FF4FA591B4918FB7F894EC91B7
:1002D000111108C0D095DE23DC938FBFDF91CF9141
:1002E0001F910895DE2BF8CFCF93DF9390E0FC01B0
:1002F000E057FF4F249182559F4FFC018491882342
:10030000C9F090E0880F991FFC01E859FF4FA591B3
:10031000B491FC01EC55FF4FC591D49161110DC012
:100320009FB7F8948C91209582238C938881282301
:1003300028839FBFDF91CF910895623051F49FB71A
:10034000F8943C91822F809583238C93E8812E2B07
:10035000EFCF8FB7F894EC912E2B2C938FBFEACF71
:100360008F929F92AF92BF92CF92DF92EF92FF92C5
:100370000F931F93CF938C016A017B01809105013C
:100380008E3079F08F3F09F442C0CF911F910F91C9
:10039000FF90EF90DF90CF90BF90AF909F908F90A5
:1003A0000895E2ECF0E0C491C7FDEFCF61E08EE08C
:1003B0000E947401C11141C0980150E040E068E41E
:1003C00078EE81E090E00E94AD1349015A0181E08E
:1003D000881A9108A108B10885B5887F836085BD1A
:1003E0002FEF3FEFA901C114D104E104F10409F496
:1003F000EFC0D801AA0FBB1FA70196010E94CC1322
:1004000028EE33E040E050E00E948B13DAC08EE02B
:1004100080930501E2ECF0E0C491CF3F09F4B5CF41
:10042000C13009F455C0D8F1C23009F46FC0C7FD1E
:10043000ACCF61E08EE00E947401980150E040E092
:10044000C23009F085C060E970ED83E090E00E9461
:10045000AD1349015A0181E0881A9108A108B10839
:100460008091B100887F83608093B1002FEF3FEFD0
:10047000A901C114D104E104F10409F0BACF8092BA
:10048000B3002093A6023093A7024093A802509392
:10049000A9028091700082608093700076CF14BCB6
:1004A00015BC84B5826084BD85B5816085BDECEBEB
:1004B000F0E0E491F0E0EE0FFF1FEC55FF4F859167
:1004C0009491EEE9F0E0E491E093A502C0E06ECFF4
:1004D000109280001092810080918100886080934A
:1004E000810080918100816080938100ECEBF0E0DD
:1004F000E491F0E0EE0FFF1FEC55FF4F85919491D2
:10050000EEE9F0E0E491E093A40250CF1092B00045
:100510001092B1008091B00082608093B000809111
:10052000B10081608093B100ECEBF0E0E491F0E089
:10053000EE0FFF1FEC55FF4F859194919093A3020E
:100540008093A202EEE9F0E0E491E093A1022ECFC5
:1005500060E072E18AE790E00E94AD1349015A0120
:1005600081E0881A9108A108B108C13009F580918D
:100570008100887F8160809381002FEF3FEFA90188
:10058000C114D104E104F10409F033CF9092890041
:10059000809288002093AA023093AB024093AC0271
:1005A0005093AD0280916F00826080936F00EDCE1A
:1005B0002FEF3FEFA901C114D104E104F10409F0C8
:1005C00018CFC13019F3C23009F459CFC111DDCEB3
:1005D00087BC2093AE023093AF024093B002509399
:1005E000B10280916E00826080936E00CECE3FB7E4
:1005F000F8948091260290912702A0912802B09150
:10060000290226B5A89B05C02F3F19F00196A11D10
:10061000B11D3FBFBA2FA92F982F8827BC01CD014C
:10062000620F711D811D911D42E0660F771F881FAB
:10063000991F4A95D1F708958F929F92AF92BF92DA
:10064000CF92DF92EF92FF924B015C010E94F70282
:100650006B017C010E94F7026C197D098E099F09CC
:10066000683E734081059105A8F321E0821A910844
:10067000A108B10888EEC80E83E0D81EE11CF11C69
:1006800081149104A104B10429F7FF90EF90DF9049
:10069000CF90BF90AF909F908F9008952FB7F89410
:1006A0006091220270912302809124029091250290
:1006B0002FBF08952F923F924F925F926F927F9239
:1006C0008F929F92AF92BF92CF92DF92EF92FF9262
:1006D0000F931F93CF93DF93CDB7DEB72C970FB651
:1006E000F894DEBF0FBECDBF9C838B836A83798372
:1006F0000E944E031B012C019C81990F990B2B81A9
:100700003C81492F592F692F792F892FA0902A02D8
:10071000B0902B02C0902C02D0902D02E0902E02BF
:10072000F0902F0200913002109131020E94D713F5
:10073000AA801981110F110BB980C12ED12EE12E83
:10074000F12E012F0E94D71359016A017B018C0100
:100750009101A20160E070E080E090E00E94E0136F
:10076000F4F0EB80FC80A701FF0C660B770B84ECA8
:1007700099E00E94B0010E944E037B018C016093BE
:100780002A02F0922B0280932C0210932D021092D9
:100790002E0210922F0210923002109231022C96EB
:1007A0000FB6F894DEBF0FBECDBFDF91CF911F9182
:1007B0000F91FF90EF90DF90CF90BF90AF909F9000
:1007C0008F907F906F905F904F903F902F90089503
:1007D0000895DC01ED91FC910190F081E02D0994E8
:1007E000AF92BF92CF92DF92EF92FF920F931F933F
:1007F000CF93DF936C017B018B01040F151FEB017D
:100800005E01AE18BF08C017D10759F06991D60133
:10081000ED91FC910190F081E02DC6010995892BA5
:1008200079F7C501DF91CF911F910F91FF90EF9064
:10083000DF90CF90BF90AF90089580917B02909110
:100840007C02891B990B0895FC01538D448D252F43
:1008500030E0842F90E0821B930B541710F0CF965A
:10086000089501970895FC01918D828D981761F08C
:10087000A28DAE0FBF2FB11D5D968C91928D9F5FA3
:100880009F73928F90E008958FEF9FEF0895FC0182
:10089000918D828D981731F0828DE80FF11D858D35
:1008A00090E008958FEF9FEF0895FC01918D228DC8
:1008B000892F90E0805C9F4F821B91098F7399274D
:1008C000089582EB92E00E94550421E0892B09F4FF
:1008D00020E0822F089580E090E0892B29F00E948B
:1008E000610481110C9400000895FC01A48DA80FEF
:1008F000B92FB11DA35ABF4F2C91848D90E0019662
:100900008F739927848FA689B7892C93A089B18981
:100910008C9180648C93938D848D981306C002888B
:10092000F389E02D80818F7D80830895EF92FF927F
:100930000F931F93CF93DF93EC0181E0888F9B8D02
:100940008C8D981316C0E889F989808185FF11C0C4
:10095000EE89FF896083E889F989808180648083DA
:1009600081E090E0DF91CF911F910F91FF90EF9088
:100970000895F62E0B8D10E00F5F1F4F0F73112798
:10098000E02E8C8D8E110CC00FB607FCFACFE889D3
:10099000F989808185FFF5CFCE010E947504F1CFE2
:1009A000EB8DEC0FFD2FF11DE35AFF4FF0820B8F03
:1009B000EA89FB8980818062D2CFCF93DF93EC01FB
:1009C000888D8823B9F0AA89BB89E889F9898C9137
:1009D00085FD03C0808186FD0DC00FB607FCF7CFF3
:1009E0008C9185FFF2CF808185FFEDCFCE010E94F3
:1009F0007504E9CFDF91CF91089585ED8093BC0018
:100A00008091BC0084FDFCCF10927A020895209161
:100A1000E601260F3327331F21323105ECF42091F4
:100A20007A02FC0190E080E0243069F082E00895D1
:100A3000A091E6012191AC014A535E4FA40FB52F5E
:100A4000B11D2C930196861798F38091E601680FEB
:100A50006093E60180E0089581E0089510927A02A3
:100A600081E0809379021092740261E082E10E9439
:100A7000460161E083E10E944601E9EBF0E08081FC
:100A80008E7F808380818D7F808388E48093B8000F
:100A900085E48093BC00089508950895E0917C0258
:100AA00080917B02E81730F4F0E0E358FD4F80813D
:100AB00090E008958FEF9FEF089590917C028091D0
:100AC0007B022FEF3FEF981748F4E92FF0E0E3584F
:100AD000FD4F208130E09F5F90937C02C901089513
:100AE000CF92DF92EF92FF920F931F93CF93DF93FA
:100AF0007C01CB018A012091A002222389F0EB0125
:100B00006B01C40ED51ECC15DD0569F06991D701C6
:100B1000ED91FC910190F081E02DC7010995F3CF93
:100B2000642F0E940705C801DF91CF911F910F919B
:100B3000FF90EF90DF90CF900895CF93DF931F92B7
:100B4000CDB7DEB769832091A0022223F9F020916E
:100B50009D02203258F021E030E0FC0133832283F3
:100B600090E080E00F90DF91CF91089580919E02F8
:100B7000E82FF0E0EC5CFD4F998190838F5F8093CC
:100B80009E0280939D0281E090E0ECCF61E0CE0177
:100B900001960E940705F7CF682F8FE493E00C942D
:100BA0009D050F931F93CF938C01C62FFC01848169
:100BB0000E948D00F80183858C2B90E00E94CC056B
:100BC000CF911F910F910C94970090E080E00895D1
:100BD000CF92DF92EF92FF920F931F930E944E03EA
:100BE0000091C2011091C3012091C4013091C5014F
:100BF0006B017C01C01AD10AE20AF30A970186014F
:100C0000083C110521053105F0F06093C201709395
:100C1000C3018093C4019093C50180911E029091FD
:100C20001F02892B81F083E00E941D01019791F042
:100C30008FEF9FEFDC0180931A0290931B02A09329
:100C40001C02B0931D021F910F91FF90EF90DF9057
:100C5000CF90089581E090E0A0E0B0E0ECCF9091DB
:100C60007A029111FCCF282F91E090937A02909311
:100C700079023FEF3093780210927702380F309369
:100C800076029093750290917502906D9093750223
:100C900090917402913019F510927402909175023E
:100CA0009093BB009091BC0093FDF8CF95EC90938E
:100CB000BC0090917A029130E1F3909177029817FD
:100CC00010F420917702A4E5B2E0EDE7F2E080E0D5
:100CD000821307C010927C0280937B02089595EEE8
:100CE000E6CF9D9191938F5FF3CF88E60E948D00B0
:100CF00081E090E00E94CC050E94970081E090E0A6
:100D00000E942F068FE493E00E945D05982F929534
:100D10009F708F702AE0929F800D1124089588E6BD
:100D20000E948D0082E090E00E94CC050E94970016
:100D300081E090E00E942F068FE493E00E945D0521
:100D400021E0AC014074552786FF20E02093330258
:100D5000282F22952F70382F3F70452B61F085FB8F
:100D6000992790F9909332022170832F9AE0299F5E
:100D7000800D112408952370F8CF88E60E948D001D
:100D800090E080E00E94CC050E94970081E090E016
:100D90000E942F068FE493E00E945D05982F9295A4
:100DA0009F708F702AE0929F800D112408950F93F9
:100DB0001F93CF938C01C62F0E94D1056C2F6460C6
:100DC000C8010E94D1056C2F6B7FC8010E94D1051C
:100DD00083EC90E00197F1F7CF911F910F91089567
:100DE0000F931F93CF938C01C62F607F61600E9489
:100DF000D70680E1C89FB00111246160C8010E943C
:100E0000D70681E090E0CF911F910F910895CF9385
:100E1000C82F682F607F8BE593E00E94D70680E1A2
:100E2000C89FB00111248BE593E0CF910C94D706B5
:100E3000CF93DF93CDB7DEB728970FB6F894DEBF18
:100E40000FBECDBF98E0E6E0F1E0DE011196019023
:100E50000D929A95E1F790916403961708F46FEF5D
:100E600070E0660F771F21E030E02C0F3D1F620F0E
:100E7000731FFB019081890F806828960FB6F89444
:100E8000DEBF0FBECDBFDF91CF910C940707FB01F2
:100E900001900020E9F73197AF01461B570BDC01A9
:100EA000ED91FC910280F381E02D09948F929F9245
:100EB000AF92BF92EF92FF920F931F93CF93DF9366
:100EC000CDB7DEB7A1970FB6F894DEBF0FBECDBF8A
:100ED0007C01FA01CB0119A2223008F42AE08E012C
:100EE0000F5D1F4F822E912CB12CA12CBF01A501AB
:100EF00094010E948B13F901CA016A300CF5605D00
:100F0000D8016E938D01232B242B252B79F790E0AC
:100F100080E0109721F0BD01C7010E944707A1960C
:100F20000FB6F894DEBF0FBECDBFDF91CF911F91FA
:100F30000F91FF90EF90BF90AF909F908F9008958A
:100F4000695CDECFCF92DF92EF92FF920F931F93F7
:100F5000CF93DF936B01770FEE08FF08F7FE1BC0FE
:100F6000EC016DE20E94E9038C0144275527BA0188
:100F70004C195D096E097F092AE0CE010E945607CF
:100F8000800F911FDF91CF911F910F91FF90EF90F4
:100F9000DF90CF9008952AE0B701A601DF91CF91AD
:100FA0001F910F91FF90EF90DF90CF900C94560718
:100FB000CF93DF93BC0182EB92E00E94A207EC0189
:100FC0006EE371E082EB92E00E9447078C0F9D1F59
:100FD000DF91CF910895462F50E070E060E02AE065
:100FE0000C945607CF93DF93BC0182EB92E00E94F2
:100FF0004707EC016EE371E082EB92E00E94470745
:101000008C0F9D1FDF91CF9108950C944707CF93CC
:10101000DF9385E00E941D01EC0161E471E082EB49
:1010200092E00E94050885E00E941D010E94D807F9
:101030006AE471E082EB92E00E9405088091200250
:1010400090E00E94D80780910001CD2B09F480E048
:10105000DF91CF9108951F920F920FB60F92112436
:101060002F933F938F939F93AF93BF9380912202CF
:1010700090912302A0912402B09125023091210287
:1010800023E0230F2D3758F50196A11DB11D2093A4
:1010900021028093220290932302A0932402B09312
:1010A00025028091260290912702A0912802B091FA
:1010B00029020196A11DB11D80932602909327025B
:1010C000A0932802B0932902BF91AF919F918F9175
:1010D0003F912F910F900FBE0F901F90189526E80B
:1010E000230F0296A11DB11DD2CF1F920F920FB6F2
:1010F0000F9211242F933F934F935F936F937F939E
:101100008F939F93AF93BF93EF93FF93E09103016E
:10111000F09104010995FF91EF91BF91AF919F91DB
:101120008F917F916F915F914F913F912F910F9090
:101130000FBE0F901F9018951F920F920FB60F922F
:1011400011242F933F934F935F936F937F938F93CC
:101150009F93AF93BF93EF93FF93E0910101F091C1
:1011600002010995FF91EF91BF91AF919F918F91EE
:101170007F916F915F914F913F912F910F900FBE93
:101180000F901F9018951F920F920FB60F92112477
:101190002F933F934F935F936F937F938F939F937F
:1011A000AF93BF93EF93FF938091A6029091A70214
:1011B000A091A802B091A902892B8A2B8B2BD1F187
:1011C0009091A102E091A202F091A302808189276F
:1011D00080838091A6029091A702A091A802B0916D
:1011E000A902181619061A061B069CF48091A6027D
:1011F0009091A702A091A802B091A9020197A1091C
:10120000B1098093A6029093A702A093A802B0937D
:10121000A902FF91EF91BF91AF919F918F917F9123
:101220006F915F914F913F912F910F900FBE0F9053
:101230001F90189580910501E2ECF0E0E4919FEF9A
:1012400090930501E13051F030F0E23069F060E058
:101250000E944601DECF10926E00F9CF90916F0090
:101260009D7F90936F00F3CF909170009D7F90933E
:10127000700091E09093B0009091B100987F9460DD
:101280009093B1001092B300E2CF1F920F920FB66D
:101290000F9211242F933F934F935F936F937F93FC
:1012A0008F939F93AF93BF93EF93FF9382EB92E063
:1012B0000E947504FF91EF91BF91AF919F918F9123
:1012C0007F916F915F914F913F912F910F900FBE42
:1012D0000F901F9018951F920F920FB60F92112426
:1012E0002F938F939F93EF93FF93E091C202F0911E
:1012F000C3028081E091C802F091C90282FD1BC047
:1013000090818091CB028F5F8F732091CC028217E6
:1013100041F0E091CB02F0E0EE54FD4F958F8093C9
:10132000CB02FF91EF919F918F912F910F900FBE64
:101330000F901F9018958081F4CF1F920F920FB6D7
:101340000F9211242F933F934F935F936F937F934B
:101350008F939F93AF93BF93EF93FF938091B900C7
:10136000887F803609F44AC0F0F5883209F4A5C0B8
:1013700018F5803109F499C0B8F4882309F4F5C050
:10138000883009F492C0FF91EF91BF91AF919F9186
:101390008F917F916F915F914F913F912F910F901E
:1013A0000FBE0F901F901895883109F486C08032C7
:1013B00051F78093780214C0803409F49BC040F444
:1013C0008033B9F38833F9F68093780285ECAEC0A8
:1013D000803509F483C0883509F494C0883499F6BF
:1013E0000E94FD04D0CF883909F48AC038F58837C7
:1013F00029F050F4883611F0803729F683E0809385
:101400007A021092080255C0883809F479C08039F0
:1014100019F0803809F0B7CF80910802803208F0C7
:101420006FC0E091080281E08E0F809308028091E6
:10143000BB00F0E0E851FE4F80833BC0803B39F0B9
:10144000D0F4803A09F477C0883A09F09CCF84E060
:1014500080937A021092E7011092E601F0E0E0E05A
:1014600009958091E60181110FC081E08093E6012A
:101470001092C60109C0803C09F4A8CF883C09F449
:10148000A5CF883B09F07FCFE091E70181E08E0F87
:101490008093E701F0E0EA53FE4F80818093BB0028
:1014A0009091E7018091E60129C0809175028093B7
:1014B000BB0085EC8093BC0066CF90917702809151
:1014C0007602981758F5E091770281E08E0F8093AD
:1014D0007702F0E0EC5AFD4F8081E9CFE09177028E
:1014E00081E08E0F809377028091BB00F0E0EC5A90
:1014F000FD4F808390917702809176029817C8F211
:1015000085E8D8CFE091770281E08E0F8093770253
:101510008091BB00F0E0EC5AFD4F8083809179020E
:1015200081115ECF81E08093740284EA8093BC00D5
:1015300010927A0228CF85EC8093BC0010927A0238
:1015400080910802803230F4E0910802F0E0E85126
:10155000FE4F10826091080270E088EE91E0F0E0AA
:10156000E0E00995109208020ECF1092780238CF71
:10157000E2EBF2E01382128288EE93E0A0E0B0E0AA
:1015800084839583A683B78322E131E0318320836E
:1015900025EC30E03587248724EC30E03787268738
:1015A00020EC30E0318B208B21EC30E0338B228B30
:1015B00022EC30E0358B248B26EC30E0378B268B09
:1015C000118E128E138E148EEFE4F3E013821282CA
:1015D00084839583A683B78384E291E0918380839B
:1015E000EBE5F3E01382128286E391E0918380833E
:1015F00087E2848380E1808782E08187128688E0A9
:1016000083870895CF93DF93CDB7DEB72C970FB6BE
:10161000F894DEBF0FBECDBF789484B5826084BDE0
:1016200084B5816084BD85B5826085BD85B58160E6
:1016300085BD80916E00816080936E001092810064
:10164000809181008260809381008091810081601F
:1016500080938100809180008160809380008091E0
:10166000B10084608093B1008091B000816080936C
:10167000B00080917A00846080937A0080917A0033
:10168000826080937A0080917A00816080937A00F2
:1016900080917A00806880937A001092C100109245
:1016A0007C0210927B0210929E0210929D020E9478
:1016B0002E05E091C202F091C30282E08083E091A6
:1016C000BE02F091BF021082E091C002F091C1020F
:1016D0008FEC80831092CA02E091C602F091C7029B
:1016E00086E08083E091C402F091C5028081806130
:1016F0008083E091C402F091C5028081886080837C
:10170000E091C402F091C502808180688083E091FD
:10171000C402F091C50280818F7D80830E942E05D6
:101720001092600380916403823018F098E09093E7
:10173000600390916503992339F0813029F48091F9
:10174000600384608093600362E370E080E090E077
:101750000E941C03609166038BE593E00E94D10513
:1017600068EE73E080E090E00E941C0360E38BE58C
:1017700093E00E94D7068BE496E40197F1F760E3CB
:101780008BE593E00E94D7060BE416E4C8010197AD
:10179000F1F760E38BE593E00E94D70683E592E0E2
:1017A0000197F1F760E28BE593E00E94D706809104
:1017B000600380620E94070784E0809361038CE0ED
:1017C0000E94070781E00E9407078BE39FE10197D2
:1017D000F1F782E08093620386E00E94070782E0CF
:1017E0000E9407070BE31FE1C8010197F1F788E0AA
:1017F0008093660360E08BE593E00E94D10588EE5C
:1018000095E09093020180930101809169008C7FA3
:10181000826080936900E89A62E082E00E9474012D
:1018200062E083E00E94740162E084E00E9474013F
:1018300060E08CE00E94740160E088E00E94740126
:1018400061E08AE00E94740161E089E00E94740115
:101850000E948F06082F10E01093170200931602C3
:101860000E947506E82EF12CFC82EB820E94750620
:101870008A3308F442C090E080E0EB80FC808E0D5B
:101880009F1D9093190280931802109315020093E4
:1018900014020396909313028093120260E089E091
:1018A0000E94460160E08AE00E9446013CE3732EFC
:1018B00087E00E941D01892BF1F5809120028111A2
:1018C0003AC080910001882309F45DC261E089E09B
:1018D0000E94460160E08AE00E9446018CE00E947E
:1018E0001D010197A1F08CE00E941D01019741F0BC
:1018F00083E591E00E94F207F6CF82E090E0BDCF51
:1019000064E670E080E090E00E941C03E7CF60E0B6
:1019100089E00E94460160E08AE00E944601109240
:10192000000190E080E00E94D80768EE73E080E05C
:1019300090E00E941C0384E00E941D01892BC9F4E1
:101940008AE591E00E94F20780911E0290911F02A9
:10195000009709F04AC201E010E010931F020093C3
:101960001E020E944E036CE271E080E090E00E9453
:101970001C0380911A0290911B02A0911C02B0914D
:101980001D02892B8A2B8B2B09F453C0C0901A029D
:10199000D0901B02E0901C02F0901D022AE0B701DB
:1019A000A601F7FE0DC06DE282EB92E00E94E90312
:1019B00044275527BA014C195D096E097F092AE0B1
:1019C00082EB92E00E94560782E691E00E94F207C5
:1019D00020911E0230911F022230310509F035C2DC
:1019E000809118029091190240911A0250911B02A5
:1019F00060911C0270911D0221E030E041305105E0
:101A00006105710511F02FEF3FEF820F931F97FDD6
:101A100016C28C3391050CF015C290931902809375
:101A2000180210921A0210921B0210921C021092BD
:101A30001D02E0901E02F0901F02FC82EB8260E02B
:101A400080E00E94180780916103EF2809F0BDC271
:101A50008E7F8093610388600E9407076BEB71E0C3
:101A60008BE593E00E9405088091090268EB71E024
:101A7000811102C06FE671E08BE593E00E940508DA
:101A800088E60E948D0086E090E00E94CC050E94CE
:101A9000970081E090E00E942F068FE493E00E947F
:101AA0005D05982F92959F708F70682F2AE0F22E17
:101AB0009F9D600D11248BE593E00E94EB0760E28F
:101AC0008BE593E00E94E90388E60E948D0085E0A3
:101AD00090E00E94CC050E94970081E090E00E9477
:101AE0002F068FE493E00E945D05982F991F992798
:101AF000991F90930902982F929597708F70682F75
:101B00009F9D600D11248BE593E00E94EB0760E23E
:101B10008BE593E00E94E90388E60E948D0084E053
:101B200090E00E94CC050E94970081E090E00E9426
:101B30002F068FE493E00E945D05982F92959F7089
:101B40008F70682F9F9D600D11248BE593E00E949C
:101B5000EB0760E28BE593E00E94E90361E080E03F
:101B60000E9418070E948F06682F8BE593E00E9461
:101B7000EB076AE38BE593E00E94E9030E94750698
:101B8000682F8BE593E00E94EB076AE38BE593E017
:101B90000E94E9030E94BD06682F8BE593E00E9436
:101BA000EB0761E771E08BE593E00E94050888E6AA
:101BB0000E948D0081E190E00E94CC050E94970078
:101BC00082E090E00E942F0690917B0280917C023F
:101BD000981709F4B7C18FE493E00E945D058B83E9
:101BE0008FE493E00E945D050B810A83198269816D
:101BF0007A81682B96E0759567959A95E1F7072E9F
:101C0000000C880B990B0E94161220E030E040E88F
:101C10005EE30E9419136B017C01AC019B010E94E1
:101C2000861365E771E081111BC046015701E894F6
:101C3000B7F82FEF3FEF4FE75FE7C501B4010E9410
:101C40008613811187C12FEF3FEF4FE75FE7C50193
:101C5000B4010E94DA1118160CF07CC169E771E03A
:101C60008BE593E00E94470761E871E08BE593E024
:101C70000E94050880911E0290911F02892B09F095
:101C800075C00E940708811171C00E948F06182F2D
:101C90000E947506282F30E0179D200D311D11245C
:101CA0003C832B836091160270911702769E80010F
:101CB000779E100D11248091180290911902080F3F
:101CC000191FC0901402D0901502A0901202B0907B
:101CD000130282EB92E00E94A20761E571E082EBC1
:101CE00092E00E94050880911802909119020E94CA
:101CF000D8070E948F06682F82EB92E00E94EB07C4
:101D000061E571E082EB92E00E9405080E94750691
:101D1000682F82EB92E00E94EB076EE371E082EBAA
:101D200092E00E94470761E571E082EB92E00E9439
:101D300005080E94BD06682F82EB92E00E94EB0727
:101D40006EE371E082EB92E00E944707EB80FC803B
:101D5000E016F10609F0E4C181EB91E00E94F20780
:101D600068EC70E080E991E00E945A0300E010E026
:101D7000012B09F49DCD0E946104882309F496CDBE
:101D80000E94000093CD60E089E00E94460161E07E
:101D90008AE00E94460188E00E941D01019789F0B7
:101DA00088E00E941D01019729F087E591E00E94DB
:101DB000F207F6CF64E670E080E090E00E941C033A
:101DC000EACF60E089E00E94460160E08AE00E947C
:101DD0004601FF24F394F09200010E940708882333
:101DE00009F4A9CDF0922002A6CD8130910579F4B5
:101DF00022E030E030931F0220931E0210921A025C
:101E000010921B0210921C0210921D02AACD823069
:101E1000910539F443E050E050931F0240931E02B5
:101E2000EDCF039739F484E090E090931F02809304
:101E30001E02E4CF10921F0210921E02DFCF8BE32E
:101E400090E0EBCD90E080E0E8CD2130310529F540
:101E5000809116029091170240911A0250911B0234
:101E600060911C0270911D024130510561057105A0
:101E700011F02FEF3FEF820F931F97FD08C08831BD
:101E8000910544F49093170280931602CACD87E11E
:101E900090E0F8CF90E080E0F5CF2330310539F5C0
:101EA000809114029091150240911A0250911B02E8
:101EB00060911C0270911D0221E030E0413051051B
:101EC0006105710511F02FEF3FEF820F931F97FD12
:101ED00008C08831910544F4909315028093140250
:101EE000A0CD87E190E0F8CF90E080E0F5CF2430FE
:101EF000310509F09ECD809112029091130240911C
:101F00001A0250911B0260911C0270911D0221E087
:101F100030E0413051056105710511F02FEF3FEFC1
:101F2000820F931F97FD08C08C33910544F4909362
:101F300013028093120275CD8BE390E0F8CF90E00E
:101F400080E0F5CFC12C8CE3D82E8CE1E82E86EC16
:101F5000F82E6BCE2FEF3FEF4FE75FE4C701B601DE
:101F60000E94141318161CF46DE771E079CE2FEF60
:101F70003FEF4FE75FECC701B6010E94DA1187FD22
:101F8000F3CF20E030E0A901C701B6010E94DA11C9
:101F900087FF09C06DE28BE593E00E94E903F7FA41
:101FA000F094F7F8F09420E030E040E05FE3C70100
:101FB000B6010E946E110E94DF11AB01BC012AE044
:101FC0008BE593E00E9456074FCE982F9160896071
:101FD0002B813C81215031099093610322303105DE
:101FE00008F050C00E94070760E080E00E941807D8
:101FF00068E871E08BE593E00E94050861E085E008
:102000000E94180768E971E08BE593E00E940508DB
:1020100061E080E00E9418078091160290911702FB
:102020000A972CF460E38BE593E00E94E90360914A
:102030001602709117028BE593E00E94A2076AE3F3
:102040008BE593E00E94E9038091180290911902B8
:102050000A972CF460E38BE593E00E94E90360911A
:102060001802709119028BE593E00E94A2070B8180
:102070001C810130110509F050C061E080E00E9430
:102080001807F8CD0E94070760E080E00E9418075B
:1020900068E871E08BE593E00E94050861E085E067
:1020A0000E94180765EA71E08BE593E00E9405083D
:1020B00061E080E00E94180780911402909115025F
:1020C0000A972CF460E38BE593E00E94E9036091AA
:1020D0001402709115028BE593E00E94A2076AE357
:1020E0008BE593E00E94E903809112029091130224
:1020F0000A972CF460E38BE593E00E94E90360917A
:102100001202709113028BE593E00E94A2070B81EB
:102110001C810330110509F4B0CF61E083E0AFCF3B
:10212000EB80FC800E151F0574F4C80101968E1516
:102130009F054CF084EB91E00E94F20764E670E0AA
:1021400088EC90E011CEEB80FC802FEFE21AF20ACF
:102150000E151F0579F08B819C81029608171907CF
:1021600071F487EB91E00E94F2076CE175E284EF75
:1021700091E0FACD0E94BD068F3168F7F2CF0E15BF
:102180001F0509F471C07C9CC0017D9C900D112439
:10219000A80EB91EEB80FC80EA14FB0409F0E6CD22
:1021A0008DEB91E00E94F207109220020E944E03F4
:1021B0004B015C0120910A0230910B0240910C020C
:1021C00050910D0260910E0270910F0280911002E9
:1021D000909111020E940E121B012C0120E030E0B0
:1021E00041E654E40E946E116B017C01C501B4010B
:1021F0000E9414124B015C0120E030E046E954E4F7
:10220000C701B6010E946E119B01AC01C501B4016A
:102210000E94141387FD36C044EA51E060E070E08C
:1022200080EF9AE00E94B0010E944E037B018C0176
:1022300020E030E0A9016D83FE828F831887298713
:102240003A874B875C8760930A02F0920B02809377
:102250000C0210930D0210920E0210920F021092B7
:1022600010021092110282CD0E94BD068F3108F437
:102270008ACF8AEB91E00E94F20768EE73E088EE65
:1022800093E072CD0E944E030E9414124B015C0138
:1022900020E030E042ED53E4C201B1010E946E1132
:1022A0009B01AC01C501B4010E94141387FD5ECDF2
:1022B0000E944E030E9414129B01AC01C701B6019B
:1022C0000E94141387FD52CD40EE51E060E070E0B3
:1022D00080EC98E00E94B00149CD5058BB27AA2756
:1022E0000E9485110C94DA120E94CC1238F00E94E0
:1022F000D31220F039F49F3F19F426F40C94B9124C
:102300000EF4E095E7FB0C94B312E92F0E94EB1258
:1023100058F3BA17620773078407950720F079F41A
:10232000A6F50C940D130EF4E0950B2EBA2FA02DEC
:102330000B01B90190010C01CA01A0011124FF2772
:10234000591B99F0593F50F4503E68F11A16F0406D
:10235000A22F232F342F4427585FF3CF469537956C
:102360002795A795F0405395C9F77EF41F16BA0B31
:10237000620B730B840BBAF09150A1F0FF0FBB1FDF
:10238000661F771F881FC2F70EC0BA0F621F731F28
:10239000841F48F4879577956795B795F7959E3F85
:1023A00008F0B0CF9395880F08F09927EE0F979516
:1023B000879508950E948F1208F481E008950E9485
:1023C000F31288F09F5798F0B92F9927B751B0F0C2
:1023D000E1F0660F771F881F991F1AF0BA95C9F7A9
:1023E00014C0B13091F00E940D13B1E008950C9427
:1023F0000D13672F782F8827B85F39F0B93FCCF3DA
:10240000869577956795B395D9F73EF49095809525
:10241000709561957F4F8F4F9F4F089597FB16F4EE
:102420000E94BC120C945212E89409C097FB3EF42F
:1024300090958095709561957F4F8F4F9F4F992311
:10244000A9F0F92F96E9BB279395F695879577958F
:102450006795B795F111F8CFFAF4BB0F11F460FF4F
:102460001BC06F5F7F4F8F4F9F4F16C0882311F0A7
:1024700096E911C0772321F09EE8872F762F05C0BB
:10248000662371F096E8862F70E060E02AF09A9556
:10249000660F771F881FDAF7880F9695879597F94B
:1024A0000895E894F92F96EBFF2381F01216130696
:1024B0001406440B9395F6958795779567955795F0
:1024C0004040FF23B9F71BC099270895882351F492
:1024D0009850D2F7872B762F652F542F432F322F0A
:1024E00020E0B1F3121613061406440B88233AF0C9
:1024F0009A95440F551F661F771F881FCAF75523EB
:102500004AF4440F551F11F460FF04C06F5F7F4F02
:102510008F4F9F4F880F9695879597F90895990F3C
:102520000008550FAA0BE0E8FEEF16161706E8079D
:10253000F907C0F012161306E407F50798F0621BBE
:10254000730B840B950B39F40A2661F0232B242B93
:10255000252B21F408950A2609F4A140A6958FEFB2
:10256000811D811D089597F99F6780E870E060E004
:1025700008959FEF80EC08959095809570956095F3
:1025800050954095309521953F4F4F4F5F4F6F4F7E
:102590007F4F8F4F9F4F089500240A9416161706F9
:1025A00018060906089500240A9412161306140644
:1025B00005060895092E0394000C11F4882352F0A7
:1025C000BB0F40F4BF2B11F460FF04C06F5F7F4F5F
:1025D0008F4F9F4F089557FD9058440F551F59F046
:1025E0005F3F71F04795880F97FB991F61F09F3F00
:1025F00079F087950895121613061406551FF2CF29
:102600004695F1DF08C0161617061806991FF1CF78
:1026100086957105610508940895E894BB2766279F
:102620007727CB0197F908950E948F1208F48FEF56
:1026300008950E942C130C94DA120E94CC1238F0E8
:102640000E94D31220F0952311F00C94B3120C9435
:10265000B91211240C940E130E94EB1270F3959F83
:10266000C1F3950F50E0551F629FF001729FBB2789
:10267000F00DB11D639FAA27F00DB11DAA1F649F25
:102680006627B00DA11D661F829F2227B00DA11DD8
:10269000621F739FB00DA11D621F839FA00D611D5E
:1026A000221F749F3327A00D611D231F849F600D7F
:1026B000211D822F762F6A2F11249F5750409AF0A8
:1026C000F1F088234AF0EE0FFF1FBB1F661F771F34
:1026D000881F91505040A9F79E3F510580F00C94FF
:1026E000B3120C940E135F3FE4F3983ED4F3869537
:1026F00077956795B795F795E7959F5FC1F7FE2B9F
:10270000880F911D9695879597F908950E948F12CD
:10271000880B990B0895A1E21A2EAA1BBB1BFD0181
:102720000DC0AA1FBB1FEE1FFF1FA217B307E407B0
:10273000F50720F0A21BB30BE40BF50B661F771F08
:10274000881F991F1A9469F76095709580959095E8
:102750009B01AC01BD01CF010895052E97FB1EF42E
:1027600000940E94C41357FD07D00E948B1307FCEE
:1027700003D04EF40C94C413509540953095219598
:102780003F4F4F4F5F4F089590958095709561959D
:102790007F4F8F4F9F4F08950E94EF13A59F900D7D
:1027A000B49F900DA49F800D911D112408952A0DB2
:1027B0003B1D4C1D5D1D6E1D7F1D801F911F0895CB
:1027C0002A153B054C055D056E057F0580079107C1
:1027D0000895EE0FFF1F0590F491E02D0994A29F3C
:1027E000B001B39FC001A39F700D811D1124911DE5
:1027F000B29F700D811D1124911D0895F894FFCF93
:1028000001E803E803FF000040001400540000004A
:1028100000009604F0032404DD0455043304470447
:10282000000000009D057005E5054D051D045D05D2
:102830004E0500000000F006F003E5054C050D0A0A
:1028400000436861726765203A004C6F636B656492
:10285000203A004F555400494E0053657474696E18
:102860006700697320726F746174696E672100304C
:102870000020543D006E616E00696E66006F7666E2
:1028800000432020202020003D3D3D3D5345545431
:10289000494E473D3D3D3D00203C42656420546922
:1028A0006D653E20003C57616B652054696D653E47
:1028B000004C33004C34004C31004C320057414B3B
:0228C0004500D1
:00000001FF
